:100000009BC00000B4C00000B2C00000B0C000003F
:10001000AEC00000ACC00000AAC00000A8C0000034
:10002000A6C00000A4C00000A2C000005DC5000082
:100030009EC000009CC000009AC0000098C0000054
:1000400096C0000094C0000092C0000090C0000064
:100050008EC000008CC000008AC0000089C0000073
:1000600086C0000084C0000082C0000080C0000084
:100070007EC00000140348004F00520049005000A9
:10008000410044002000530000001C0348004F00C2
:1000900052004900200043004F002E002C004C006D
:1000A000540044002E000000040309040902290042
:1000B000010100807D090400000203000000092105
:1000C0001101000122500007050203400005070549
:1000D000810340000512010002000000400D0FC125
:1000E0000072050102000105010905A101150025A5
:1000F00001350045017501950E05091901290E818B
:10010000029502810105012507463B017504950111
:1001100065140939814265009501810126FF004679
:10012000FF0009300931093209357508950481024B
:10013000750895018101C00011241FBECFEFD2E0E8
:10014000DEBFCDBF11E0A0E0B1E0ECE9F0E102C01C
:1001500005900D92AC30B107D9F722E0ACE0B1E0E8
:1001600001C01D92A234B207E1F703D295C748CF70
:100170001F920F920FB60F9211242F933F934F931C
:100180005F936F937F938F939F93AF93BF93CF931F
:10019000DF93EF93FF9320910D0180910C0130E0EC
:1001A00090E001972817390719F488E590E033D7D4
:1001B000C0910D0181E08C0F80930D01D0E0809102
:1001C0003C0290913D02E9D6C35EDE4F8883FF91E9
:1001D000EF91DF91CF91BF91AF919F918F917F91DF
:1001E0006F915F914F913F912F910F900FBE0F90A4
:1001F0001F901895EF92FF921F93CF93DF938091FA
:100200000001882309F4B8C080910101882309F412
:10021000B3C010E0E5E1F1E037E064E070E046E90A
:1002200050E090910C0180910D01981709F4A4C041
:100230001111A2C0A0910C01B0E0A35EBE4F8C9141
:100240008D3019F08A3009F063C080911C018E3026
:1002500009F056C080911501809314018091160118
:100260009091170198278927982790931E028093D1
:100270001D02209118012093130120911901209350
:10028000120120911A012093110120911B0120934A
:1002900010011092000110920101A0910301B09190
:1002A0000401A823B923AB2B49F0509320024093BB
:1002B0001F02809105019091060110C0A0910901D3
:1002C000B0910A018A239B23892B69F05093200265
:1002D00040931F02809107019091080190931E02A4
:1002E00080931D0204C07093200260931F028091CE
:1002F0001F029091200290930F0180930E0111E054
:1003000010921C01DF01E32E1D92EA94E9F72EC042
:10031000C0EDC80FCA3060F09FE9980F963010F416
:10032000C9EA05C09FEB980F963000F5C9ECC80FDD
:1003300020911C01A22FA695B0E0AB5EBE4FD0E08D
:10034000822F90E0019681709927880F991F880F5E
:10035000991F7E0102C0EE0CFF1C8A95E2F7C701CF
:100360009C91892B8C932F5F20931C0180910C0111
:100370008F5F80930C0155CFDF91CF911F91FF903C
:10038000EF90089584B7877F84BF0FB6F894A8953F
:1003900080916000886180936000109260000FBEC1
:1003A00090E080E80FB6F89480936100909361002C
:1003B0000FBE8BC30895089542E360EC82E0C5D27E
:1003C00042E361EC81E0C1C2FC0180910001811136
:1003D00015C080911D0290911E02918380838091AF
:1003E000140182838091130183838091120184839D
:1003F000809111018583809110010DC088E0DF019B
:10040000982F1D929A95E9F711821082828380E8D5
:1004100083838483858386830895CF93DF93CDB7C9
:10042000DEB728970FB6F894DEBF0FBECDBF809120
:100430002702813019F08930B1F028C0809126025E
:10044000813A21F5CE010196BFDF8091E800877FD8
:100450008093E80068E070E0CE0101967FD1809142
:10046000E8008B7711C080912602813279F4809167
:10047000E800877F8093E80067E070E0CE01019696
:10048000C9D18091E8008E778093E80028960FB656
:10049000F894DEBF0FBECDBFDF91CF9108951F93BB
:1004A000CF93DF93CDB7DEB728970FB6F894DEBFB2
:1004B0000FBECDBF80912502843009F050C082E08C
:1004C0008093E9008091E80082FF10C08091E800ED
:1004D00085FF07C040E050E067E070E0CE01019684
:1004E000F3D08091E8008B778093E80011E01093BF
:1004F000E9008091E80080FF32C0CE01019664DF00
:1005000040E050E068E070E0CE01019693D0809129
:10051000E8008E778093E8008091010181111FC06F
:1005200080910E0190910F01019790930F0180939C
:100530000E01892BA1F48091000181110BC0109351
:10054000000180911F029091200290930F018093EF
:100550000E0105C01093010185E590E05CD5289659
:100560000FB6F894DEBF0FBECDBFDF91CF911F91C4
:10057000089580E190E09093CD008093CC0086E0D8
:100580008093CA0082E08093C80088E18093C9000C
:10059000539A5A9A80E090E0E2D478948091C9000E
:1005A00080688093C900EEDE789479DFA3D422DEE0
:1005B000FCCF292F332723303105E1F058F42130C7
:1005C000310599F02230310569F589E290E02CEA95
:1005D00030E02CC02132310501F12232310511F514
:1005E00080E590E027EE30E021C082E190E025ED4B
:1005F00030E01CC099278130910549F028F002971E
:1006000089F4E4E7F0E005C0E8EAF0E002C0EAE8D7
:10061000F0E0849190E09F0109C089E090E02EEB2A
:1006200030E004C080E090E020E030E0FA01318367
:1006300020830895CF92DF92EF92FF920F931F9342
:10064000CF93DF93EC018B017A01D3D1811133C0B9
:10065000E114F10439F0F70180819181081B190B35
:10066000C80FD91FC12CD12C0115110519F180918A
:10067000E80085FD16C08091E8008E778093E80041
:1006800039D4E114F10449F0F70180819181C80E59
:10069000D91ED182C08285E00EC0ABD1882321F360
:1006A0000AC089918093F10001501109FFEFCF1A20
:1006B000DF0ADACF80E0DF91CF911F910F91FF9099
:1006C000EF90DF90CF900895CF92DF92EF92FF925C
:1006D0000F931F93CF93DF93EC018B017A0189D1A4
:1006E000811133C0E114F10439F0F7018081918167
:1006F000081B190BC80FD91FC12CD12C01151105CE
:1007000019F18091E80085FD16C08091E8008B7793
:100710008093E800EFD3E114F10449F0F701808100
:100720009181C80ED91ED182C08285E00EC061D1F0
:10073000882321F30AC08091F100899301501109A7
:10074000FFEFCF1ADF0ADACF80E0DF91CF911F9160
:100750000F91FF90EF90DF90CF90089520912C02A1
:1007600030912D022617370748F06115710539F4CD
:100770002091E8002E772093E80001C0B901FC0128
:1007800020E06115710569F1809125028823E1F16E
:100790008530E1F18091E80083FD3AC08091E80066
:1007A00082FD2CC08091E80080FFEBCF8091F200A9
:1007B00090E06115710551F08034910538F4219174
:1007C0002093F100615071090196F3CF21E080344C
:1007D000910509F020E08091E8008E778093E80091
:1007E000D0CF2111D1CF0AC080912502882361F09A
:1007F000853061F08091E80083FD0AC08091E800B7
:1008000082FFF2CF80E0089582E0089583E00895AA
:1008100081E008956115710529F42091E8002B7796
:100820002093E800FC016115710521F180912502FA
:10083000882341F1853041F18091E80083FD20C09B
:100840008091E80082FFEFCF8091F200882331F0A1
:100850008091F100819361507109B1F78091E800B6
:100860008B778093E800DFCF80912502882351F0B9
:10087000853051F08091E80080FFF6CF80E0089548
:1008800081E0089582E0089583E0089520912C028C
:1008900030912D022617370748F06115710539F49C
:1008A0002091E8002E772093E80001C0B901FC01F7
:1008B00020E06115710581F180912502882309F4FA
:1008C0003EC0853009F43DC08091E80083FD3BC007
:1008D0008091E80082FD2DC08091E80080FFE9CF83
:1008E0008091F20090E06115710559F08034910516
:1008F00040F424912093F1003196615071090196E2
:10090000F2CF21E08034910509F020E08091E800E9
:100910008E778093E800CDCF2111CECF0AC0809191
:100920002502882361F0853061F08091E80083FD25
:100930000AC08091E80082FFF2CF80E0089582E053
:10094000089583E0089581E00895982F953068F523
:100950009093E900981739F07091EC002091ED0028
:100960005091F00003C0242F762F50E021FD02C0EB
:100970009F5FECCF3091EB003E7F3093EB003091E6
:10098000ED003D7F3093ED003091EB00316030930E
:10099000EB007093EC002093ED005093F000209159
:1009A000EE0027FDE5CF80E008958F708093E90089
:1009B00081E008958091260287FF11C08091E800B0
:1009C00082FD05C0809125028111F8CF11C0809170
:1009D000E8008B770BC080912502882349F0809135
:1009E000E80080FFF8CF8091E8008E778093E800E0
:1009F00008952091E4003091E50095E64091EC00E7
:100A0000842F817040FF23C08091E80080FD1DC0CD
:100A100080912502882399F0853099F08091EB0030
:100A200085FD11C04091E4005091E5002417350781
:100A300029F3915011F09A01E1CF84E0089582E00A
:100A4000089583E0089581E0089580E0089540913D
:100A5000E80042FFDDCF089541D043D08091D80017
:100A60008F778093D8008091D80080688093D800D9
:100A70008091D8008F7D8093D80084E089BD86E086
:100A800089BD09B400FEFDCF10922502109221020B
:100A9000109223021092220242E360E080E055DFD0
:100AA0008091E1008E7F8093E1008091E20081607F
:100AB0008093E2008091E20088608093E200809160
:100AC000E0008E7F8093E0000895E3E6F0E080810F
:100AD0008E7F808381E080932402BECF1092E2005B
:100AE00008951092E10008951F920F920FB60F9291
:100AF00011242F933F934F935F936F937F938F9323
:100B00009F93AF93BF93EF93FF938091E10082FF98
:100B10000AC08091E20082FF06C08091E1008B7FD5
:100B20008093E100E6D18091E10080FF17C08091C1
:100B3000E20080FF13C08091E2008E7F8093E2008C
:100B40008091E20080618093E2008091D800806211
:100B50008093D80019BC109225022DDC8091E10011
:100B600084FF2FC08091E20084FF2BC084E089BD08
:100B700086E089BD09B400FEFDCF8091D8008F7D4D
:100B80008093D8008091E1008F7E8093E100809176
:100B9000E2008F7E8093E2008091E200816080938A
:100BA000E20080912102882311F084E007C0809147
:100BB000E30087FD02C081E001C083E0809325024D
:100BC000F9DB8091E10083FF22C08091E20083FF86
:100BD0001EC08091E100877F8093E10082E08093D6
:100BE0002502109221028091E1008E7F8093E10026
:100BF0008091E2008E7F8093E2008091E20080612C
:100C00008093E20042E360E080E09FDE72D1FF91DA
:100C1000EF91BF91AF919F918F917F916F915F9174
:100C20004F913F912F910F900FBE0F901F901895ED
:100C30001F93CF93DF93CDB7DEB7AA970FB6F89483
:100C4000DEBF0FBECDBFE6E2F2E08091F1008193FE
:100C500022E0EE32F207C9F7E0DB8091E80083FF83
:100C600030C18091260290912702953009F483C00B
:100C700030F49130A9F168F0933091F122C19830AD
:100C800009F4EFC0993009F4FBC0963009F019C19E
:100C900094C0803821F0823809F013C108C08091D7
:100CA000220290912302992389F082600FC08091E3
:100CB0002A028F70853008F004C18093E90080918A
:100CC000EB0085FB882780F91092E9009091E800FD
:100CD000977F9093E8008093F1001092F100CCC0D0
:100CE000282F2D7F09F0EDC0882319F0823061F0A4
:100CF000E8C080912802813009F0E3C0933009F008
:100D000080E0809323022EC08091280281112AC0A6
:100D100080912A028F702FEF280F243008F0D1C065
:100D20008093E9002091EB0020FF1CC0933021F458
:100D30008091EB00806214C09091EB0090619093E1
:100D4000EB0021E030E0A90102C0440F551F8A9555
:100D5000E2F74093EA001092EA008091EB0088608D
:100D60008093EB001092E9008091E800877F8093E8
:100D7000E80020DEA6C08111A4C0109128021F77D0
:100D80008091E3008078812B8093E3008091E800DC
:100D9000877F8093E8000EDE8091E80080FFFCCF23
:100DA0008091E30080688093E300111102C082E02B
:100DB00001C083E08093250284C08058823008F00F
:100DC00080C080912802909129028C3D53E09507C4
:100DD00071F583E08A838AE289834FB7F894DE0154
:100DE000139620E03EE051E2E32FF0E050935700ED
:100DF000E49120FF03C0E295EF703F5FEF708E2F0C
:100E000090E0EA3010F0C79601C0C0968D939D9394
:100E10002F5F243149F74FBF8091E800877F80938F
:100E2000E8006AE270E0CE01019698DC14C060919F
:100E30002A0270912B02AE014F5F5F4FBADBBC01FB
:100E4000892B09F43EC09091E800977F9093E800C9
:100E500089819A811BDD8091E8008B778093E8007F
:100E600030C0803871F58091E800877F8093E8007A
:100E7000809121028093F1008091E8008E7777CFF6
:100E800081111FC080912802909129029927029711
:100E9000C4F48091E800877F8093E8008091280265
:100EA0008093210287DD80912102811106C080910B
:100EB000E30087FD02C081E001C084E08093250249
:100EC0007BDA8091E80083FF0AC08091E800877F89
:100ED0008093E8008091EB0080628093EB00AA96FB
:100EE0000FB6F894DEBF0FBECDBFDF91CF911F913B
:100EF00008950895CF9380912502882399F0C09199
:100F0000E900CF709091EC00892F817090FD80E80E
:100F1000C82B1092E9008091E80083FD89DECF7034
:100F2000C093E900CF9108959091C80095FFFCCF40
:100F30008093CE0080E090E008958091C80087FF04
:100F400008C08091C80087FF07C08091CE0090E064
:100F500008958EEF9FEF08958FEF9FEF0895FC01A6
:100F6000892B59F48EE292E090933D0280933C02EB
:100F700090933F0280933E02FC018EE0DF011D92C0
:100F80008A95E9F783E0838384E997E091878087F6
:100F90008DE997E0938782870895CF93DF93EC01E3
:100FA0002B8120FF33C026FF0AC02F7B2B838E812D
:100FB0009F8101969F838E838A8190E029C022FFC2
:100FC0000FC0E881F9818081082E000C990B0097F1
:100FD00019F420622B831AC03196F983E8830EC07E
:100FE000EA85FB85099597FF09C02B81019611F0D1
:100FF00080E201C080E1822B8B8308C02E813F817B
:101000002F5F3F4F3F832E83992702C08FEF9FEFC3
:10101000DF91CF91089560913E0270913F0200C030
:101020000F931F93CF93DF93FB01238121FD03C017
:101030008FEF9FEF2CC022FF16C04681578124817D
:1010400035814217530744F4A081B1819D012F5F80
:101050003F4F318320838C93268137812F5F3F4F11
:101060003783268314C08B01EC01FB010084F185DA
:10107000E02D0995892BE1F6D80116968D919C916A
:101080001797019617969C938E931697CE01DF9132
:0C109000CF911F910F910895F894FFCFAD
:0C109C0001010608000400020001000031
:00000001FF
